:020000040800F2
:1040000000050020A1410008375400084F53000864
:1040100035540008B5420008E95A000800000000C5
:10402000000000000000000000000000055600082D
:10403000B742000800000000595400080756000865
:10404000BB410008BB410008BB410008BB41000860
:10405000BB410008BB410008BB410008BB41000850
:10406000BB410008BB410008BB410008BB41000840
:10407000BB410008BB410008BB410008BB41000830
:10408000BB410008BB410008BB410008BB41000820
:10409000BB410008BB410008BB410008BB41000810
:1040A000BB410008BB410008BB410008BB41000800
:1040B000BB4100080000000000000000BB410008F8
:1040C000BB410008BB410008BB410008BB410008E0
:1040D000BB410008D15A0008BB410008DD5A000866
:1040E000BB410008BB4100080000000000000000C8
:1040F00000000000000000000000000000000000C0
:1041000000000000BB41000800000000BB410008A7
:104110000000000000000000BB410008BB41000897
:10412000BB410008BB410008BB410008BB4100087F
:10413000BB4100080000000000000000000000007B
:10414000BB410008BB410008BB410008BB4100085F
:10415000BB410008BB410008BB410008BB4100084F
:10416000BB410008BB410008BB4100080000000043
:10417000BB410008BB410008BB4100080000000033
:10418000BB410008BB410008BB410008DFF80CD070
:1041900000F07EF800480047555B0008000500204D
:1041A0000648804706480047FEE7FEE7FEE7FEE7D1
:1041B000FEE7FEE7FEE7FEE7FEE7FEE77D560008C6
:1041C0008D4100082DE9F05F0546002092469B4690
:1041D00088460646814640241BE02846414647461D
:1041E000224600F044F853465A46C01A914110D373
:1041F00011461846224600F02BF82D1A67EB0108ED
:104200004F4622460120002100F022F817EB00095A
:104210004E41201EA4F10104DFDC484631462A4607
:10422000434600F000B830BCBDE8C09FD2B201E008
:1042300000F8012B491EFBD270470022F6E710B5AB
:1042400013460A4604461946FFF7F0FF204610BD04
:10425000202A04DB203A00FA02F100207047914046
:10426000C2F1200320FA03F3194390407047202A3B
:1042700004DB203A21FA02F00021704721FA02F310
:10428000D040C2F120029140084319467047000017
:10429000064C074D06E0E06840F0010394E8070093
:1042A00098471034AC42F6D3FFF774FFF05B000878
:1042B000105C0008FEE77047704710B590F82510B5
:1042C0000024022903D00421C16301241AE00168FB
:1042D0000A6822F00E020A6001680A6822F00102F0
:1042E0000A6090F84410036C01F01C02012101FAED
:1042F00002F25A6080F82510002180F82410816BAA
:1043000001B18847204610BD70B5044600F0DAF8C8
:104310000546601C00D0641C00F0D4F8401BA0428D
:10432000FAD370BD2DE9F84FDFF864B100234FF0E8
:10433000010C4FF0030A4FF00F090BF1040EA0E03F
:104340000CFA03F6324072D04C68022C01D0122CC9
:104350000ED1DC0800EB8408D8F820405D07EF0E92
:1043600009FA07F5AC430D69BD402543C8F8205054
:1043700007685D0091F804800AFA05F408F0030864
:10438000A74308FA05F848EA0708C0F800804F6814
:10439000012F05D0022F03D0112F01D0122F11D1E0
:1043A0008768D1F80C80A74308FA05F848EA07089F
:1043B000C0F808804768B7430E79C6F300169E40E0
:1043C0003E434660C668A6438C68AC403443C46034
:1043D0004C68E40054D52F4C256E45F00105256648
:1043E000246E23F0030504F0010400942A4C2E19D6
:1043F000B4689D072F0F09FA07F5AC43B0F1904F51
:1044000004D0264DA84203D1012512E0002510E07A
:10441000234DA84201D102250BE0224DA84201D133
:10442000032506E0204DA84202D1042501E027E043
:104430000725BD402543B560DBF800405D464E686A
:104440009443F60300D514432C60DEF80040754613
:104450004E689443B60300D514432C600C4D0835C8
:104460002C684E689443F60200D514432C60084D26
:104470000C352C684E689443B60200D514432C606A
:104480005B1C0A6832FA03F47FF45AAF00F00EB8EE
:1044900000040140001002400000014000040048F8
:1044A00000080048000C00480010004818BCBDE897
:1044B000E08F42694A40426170470AB181617047AA
:1044C00081627047014800687047000000000020CA
:1044D00002480168491C016070470000000000208C
:1044E00010B50024032000F065F8002000F008F863
:1044F00008B1012401E000F01BF8204610BD0000C7
:1045000070B5054609484FF47A7100240068B0FB85
:10451000F1F000F073FD08B1012404E00022294607
:10452000501E00F027F8204670BD00000400002057
:10453000094808B5016E41F001010166016E01F004
:1045400001010091816D41F080518165806D00F025
:104550008050009008BD00000010024000F01F02D3
:10456000012191404009800000F1E020C0F80011D5
:1045700070470000F0B40E4B1B680C46C3F30223D7
:10458000C3F10705042D00D90425191D072901D2FF
:10459000002300E0DB1E012606FA05F1491E21403A
:1045A00099409E40761E16403143F0BC00F044BF57
:1045B0000CED00E0064900F0070208684FF6FF0323
:1045C000184040EA0220034A104308607047000088
:1045D0000CED00E00000FA051649B0F5007F086810
:1045E000C0F3412009D0022805D0086820F4C0603B
:1045F00040F480600860002070470128FBD0086804
:1046000020F4C06040F4007008600B48322200685B
:1046100050430A4AB0FBF2F0401C00E0401E4A69D9
:10462000520501D50028F9D148694005E3D503209A
:1046300070470000007000400400002040420F005E
:104640000248006800F4C06070470000007000403D
:104650002DE9F84F044600270088B54D3E46000579
:1046600015D5606C60B1B0F5000F04D0B0F5400F07
:104670002BD001270AE0E86840F48030E86024E0AD
:104680000021201D00F0EAFE07001ED03E462068F3
:1046900080033AD5A86D4FF00008C00009D4A86D7A
:1046A00040F08050A865A86D4FF0010800F08050E0
:1046B0000090DFF880A2DAF8001041F48071CAF8A7
:1046C0000010FFF7FFFE814610E0D5F88800616C0E
:1046D00020F440000843C5F88800D8E7FFF7F2FE51
:1046E000A0EB0900022801D9032705E0DAF8000051
:1046F000C005F3D5002F7DD04FEA0706B8F1000FB3
:1047000003D0A86D20F08050A8652078C00707D09E
:10471000D5F88800216A20F003000843C5F8880016
:104720002078800707D5D5F88800616A20F00C0052
:104730000843C5F888002078400707D5D5F88800D9
:10474000A16A20F030000843C5F888002078800670
:1047500007D5D5F88800E16A20F440600843C5F821
:1047600088002088800507D5D5F88800E16B20F403
:1047700040200843C5F888002088400507D5D5F8B3
:104780008800216C20F440100843C5F88800207888
:10479000400607D5D5F88800216B20F44050084327
:1047A000C5F888002078000607D5D5F88800616B29
:1047B00020F440400843C5F888002088C00507D58C
:1047C000D5F88800A16B20F440300843C5F8880074
:1047D00020884FF0006780044FF0806850D5D5F8EE
:1047E0008800A16C20F040600843C5F88800A06CE8
:1047F000B84200E005E03BD1E86840F48010E86092
:104800003EE0D5F8900010F4407014D0E16D814284
:1048100011D0D5F89000D5F8901020F4407041F4F4
:104820008031C5F89010D5F8901021F48031C5F88A
:104830009010C5F89000C00711D0FFF743FE07465F
:1048400041F2883907E000BFFFF73CFEC11B494534
:1048500001D9032652E7D5F890008007F4D5D5F8A2
:104860009000E16D20F440700843C5F8900045E7E2
:10487000404505D10121201D00F0F0FD00B10646A4
:104880002068000317D5D5F88800E16C20F040605F
:104890000843C5F88800E06CB84204D1E86840F4E9
:1048A0008010E86007E0404505D10121201D00F09F
:1048B000D5FD00B106462068400317D5D5F888001D
:1048C000216D20F040600843C5F88800206DB84293
:1048D00004D1E86840F48010E86007E0404505D165
:1048E0000121201D00F0BAFD00B1064620884004D9
:1048F00011D5D5F88800616D20F040500843C5F807
:104900008800606DB0F1805F05D10221201D00F0AC
:10491000A5FD00B106462088000406D555F8880F8D
:10492000A16D20F0804008432860304600F004B8B4
:10493000001002400070004018BCBDE8E08F00008D
:104940002DE9F0470F46050058D03F4E306800F083
:104950000700B84209D2306820F0070038433060C1
:10496000306800F00700B84248D12878374CC007BB
:104970002CD06868032811D0022812D0216898B181
:10498000490500293ADAA16821F003010143A16039
:10499000FFF798FD804641F2883910E021688901CF
:1049A000EFE721688903ECE78907EAE7FFF78AFD6B
:1049B000A0EB0801494502D90320BDE8F087A068B3
:1049C000696800F00C00B0EB810FEFD12878800708
:1049D00005D5A068A96820F0F0000843A060306801
:1049E00000F00700B8420BD9306820F007003843C8
:1049F0003060306800F00700B84201D00120DCE7E9
:104A00002878400705D5A068E96820F4E0600843ED
:104A1000A0602878000706D5A068296920F46050B6
:104A200040EAC100A06000F03BF8A168084AC1F369
:104A30000311515C01F01F01C84006490860BDE840
:104A4000F0470020FFF75CBD00200240001002404C
:104A5000A85B000804000020054806490068896832
:104A6000054AC1F30221515C01F01F01C8407047A3
:104A70000400002000100240E85B000805480649D9
:104A800000688968054AC1F3C221515C01F01F0129
:104A9000C84070470400002000100240E85B000896
:104AA00070B52549002318468A68CC6812F00C02BC
:104AB00004F00306214C4FEA640509D00C2A05D006
:104AC000042A26D0082A00D1284670BD012E10D114
:104AD0000B681B0704D4D1F89430C3F3032302E01E
:104AE0000B68C3F30313164E56F823307AB10C2A21
:104AF000EBD1C86800F00302C868C0F30210401C84
:104B0000022A08D0032A09D0B3FBF0F008E01846C7
:104B100070BD204670BDB4FBF0F001E0B5FBF0F0D5
:104B2000CA68C968C2F306225043C1F34161491CF7
:104B30004900B0FBF1F070BD001002400024F40009
:104B4000B85B00082DE9F84305007CD0FD4CA06857
:104B500000F00C06E06800F003072878C00662D574
:104B600076B10C2E01D1012F0AD0A8690028206847
:104B700078D040F001002060FFF7A4FC804659E0A7
:104B80002068800702D5A8690028DED0296A20683D
:104B9000000703D5206800F0F00004E0D4F894008A
:104BA000F02202EA1010814216D9084600F0ECFC0F
:104BB000002848D1206840F0080020602068296A59
:104BC00020F0F000084320606068E96920F47F402D
:104BD00040EA0120606015E0206840F00800206095
:104BE0002068296A20F0F000084320606068E969C5
:104BF00020F47F4040EA01206060286A00F0C4FC95
:104C00000028D6D1FFF74CFFA168CF4AC1F30311AA
:104C1000515C01F01F01C840CC4908600020FFF73B
:104C20006FFC00287ED12EE0FFF74CFCA0EB0800C3
:104C3000022878D820688007F6D5206840F0080060
:104C40002060206801E0BBE00CE0296A20F0F00061
:104C5000084320606068E96920F47F4040EA012051
:104C6000606010E020F001002060FFF72BFC804620
:104C700006E000BFFFF726FCA0EB08000228D8D80A
:104C800020688007F6D42878C00740D0082E18D0B6
:104C90000C2E01D1032F14D06868B0F5803F17D0D7
:104CA000B0F5A02F206817D020F480302060206855
:104CB00020F4802020606868E0B1FFF703FC8046A4
:104CC00014E02068800322D56868002878D01EE0B0
:104CD000206840F48030EDE740F480202060F7E762
:104CE000FFF7F0FBA0EB08006428A2D8206880033F
:104CF000F6D50CE0FFF7E6FB804605E0FFF7E2FBA8
:104D0000A0EB0800642894D820688003F6D42878A3
:104D100080073BD5042E11D00C2E01D1022F0DD0CF
:104D2000E86801E05EE1B8E0002820681ED040F4A9
:104D300080702060FFF7C6FB07460CE02068400546
:104D40000CD5E8680028C1D008E000BFFFF7BAFB27
:104D5000C01B022893D820684005F7D56068297CDD
:104D600020F0F85040EA016060600FE020F48070AD
:104D70002060FFF7A7FB074605E000BFFFF7A2FB97
:104D8000C01B0228B1D820684005F7D42878000756
:104D900029D568690028D4F8940012D040F00100A9
:104DA000C4F89400FFF78EFB074604E0FFF78AFB88
:104DB000C01B022871D8D4F894008007F6D512E001
:104DC00017E120F00100C4F89400FFF77BFB0746D1
:104DD00005E000BFFFF776FBC01B02285DD8D4F8C2
:104DE00094008007F6D42878400766D5A06D002788
:104DF000C00008D4A06D40F08050A065A06D0127D0
:104E000000F08050009052480168C90512D4016832
:104E1000814641F480710160FFF754FB804605E054
:104E2000FFF750FBA0EB0800022836D8D9F80000A5
:104E3000C005F5D5A868012816D00528D4F890003B
:104E400017D020F00100C4F89000D4F8900020F0B2
:104E5000040000BFC4F89000A86841F28839C0B1CE
:104E6000FFF730FB80460FE0D4F8900040F00100DF
:104E7000F0E740F00400C4F89000F5E7FFF722FBEC
:104E8000A0EB0801494508D8D4F890008007F5D573
:104E90000EE0FFF717FB804606E07CE0FFF712FB11
:104EA000A0EB0801494576D8D4F890008007F5D4E6
:104EB0001FB1A06D20F08050A0652878800628D50D
:104EC000686A0028D4F8980012D040F00100C4F8B5
:104ED0009800FFF7F7FA074605E000BFFFF7F2FA80
:104EE000C01B02287DD8D4F898008007F6D510E0C2
:104EF00020F00100C4F89800FFF7E4FA074604E048
:104F0000FFF7E0FAC01B02286BD8D4F8980080079E
:104F1000F6D4A86AF0B30C2E6BD00228206820F0DB
:104F20008070206018D02068000103D4E06820F071
:104F30000300E060E06807490840E060FFF7C2FA5C
:104F4000054651E000100240A85B00080400002064
:104F500000700040FFFFEEFEFFF7B4FA064604E0E3
:104F6000FFF7B0FA801B02283BD820688001F7D4F5
:104F7000286B55F82C1F000110380843298A1E4A57
:104F8000490802EB4151AA6841EA02210843297D00
:104F9000490801E02BE024E04FF07E4202EB416142
:104FA0000843297B40EAC160E060206840F08070DF
:104FB0002060E06840F08070E060FFF783FA05460B
:104FC00005E000BFFFF77EFA401B022809D82068E1
:104FD0008001F7D50BE000BFFFF774FA401B0228F1
:104FE00002D90320BDE8F88320688001F4D40020B2
:104FF000F8E70120F6E700000000E0FF10B5401ED2
:10500000B0F1807F01D3012010BD4FF0E02460613A
:105010000F21601700F010FA0020A0610720206126
:10502000002010BD704770472DE9F041026804462A
:10503000D0691168936810F00F0F4FF000055BD036
:1050400003F0010601F49077374369D0C70707D012
:10505000CF0505D501271762626F42F00102626732
:10506000820708D5DA0706D0276802223A62626F03
:1050700042F004026267420708D5DA0706D02368C7
:1050800004221A62626F42F00202626702070AD5C6
:1050900001F02002324306D0236808221A62626FB0
:1050A00042F008026267626F002A32D0800605D59E
:1050B000880603D5216E09B120468847606F000736
:1050C00003D420688068400625D5204600F094FB74
:1050D00020688168490619D5816821F04001816006
:1050E000E06E98B120498163E06EFFF7E6F8002892
:1050F0000FD0E06E816B06E0860611D58E060FD5C7
:10510000216E1EE02046BDE8F04108472046FFF72B
:105110008AFFBDE8F0812046FFF785FF6567F8E765
:10512000C60209D55B0207D54FF4801010622046F5
:10513000BDE8F041FFF776BF030605D50B0603D5A2
:10514000616E0029DED1E4E74006E2D54806E0D5ED
:105150001168204621F040011160202184F871106F
:10516000656600F0F3F8D4E7E557000810B50400D1
:1051700003D094F8710010B107E0012010BD0020A9
:1051800084F87000204600F027F8242084F871008D
:105190002068016821F001010160204600F03CFB1D
:1051A0000128EBD0606A10B1204600F089FA20682F
:1051B000416821F4904141602068816821F02A0112
:1051C00081602068016841F0010101602046BDE86E
:1051D000104000F0D9BA000070B586B00446142122
:1051E0006846FFF72AF8294E256800212848022240
:1051F00003230724B54221D1056E45F48045056699
:10520000056E05F480450595C56C45F00105C5643E
:10521000C06C02AD00F00100059085E81A0058024C
:10522000CDE9000269464FF09040FFF77BF800227D
:1052300003212520FFF79EF9252023E0154EB542D6
:1052400022D1856D45F480258565856D05F4802521
:105250000595C56C45F00205C564C06C02AD00F053
:105260000200059085E81A004FF44060CDE9000285
:1052700069460948FFF756F8002201212720FFF769
:1052800079F92720FFF76AF906B070BD00380140B0
:105290000010024000480040000400482DE9F84397
:1052A000044690F871001F4616460D4620284BD143
:1052B000C5B1BEB194F87000012845D0012084F832
:1052C00070004FF00008C4F87480212084F8710049
:1052D000FFF7F8F8A4F850608146A4F852604FF444
:1052E000805615E00120BDE8F8838021204600F0BB
:1052F000BDFBD8B9A068B04201D12069C0B115F892
:10530000010B21680885B4F85200401EA4F8520031
:10531000B4F852004B464FF0000200970028E4D149
:105320004FF04001204600F0A1FB30B10320DAE746
:1053300035F8020BC0F30800E3E7202084F8710081
:1053400084F870800020CEE70220CCE77047FEE7AB
:1053500010B586B014216846FEF76FFF1548C16C82
:1053600041F08001C164C16C01F080010591C16C04
:1053700041F00201C164C16C01F002010591C16CF0
:1053800041F00101C164C06C0B4C00F001000590BC
:105390000122F0212046FFF790F8F0200090012034
:1053A0000021CDE90101039169462046FEF7BAFFCD
:1053B00006B010BD00100240000400480D4810B5B2
:1053C0000B4901604FF4E1314160002181600C2202
:1053D000C160C0E904128161C16101624162FFF7ED
:1053E000C5FE002803D0BDE81040FEF765BF10BD24
:1053F000003801400C0000200D4810B50B49016039
:105400004FF416514160002181600C22C160C0E957
:1054100004128161C16101624162FFF7A7FE0028A9
:1054200003D0BDE81040FEF747BF10BD0048004064
:1054300084000020FEE770470907090E002806DAFD
:1054400000F00F0000F1E02080F8141D704700F11B
:10545000E02080F800147047704700002DE9F0410B
:10546000444C05468846E0680026810728680DD030
:10547000E16801F00301814216D1A8B1E0686968D2
:10548000C0F30210401C88420ED120E0012804D055
:10549000022805D0032807D108E02168890701E028
:1054A00021684905002907DB01265FE0216889039F
:1054B00002D421684903F5E7E1686A686FF00F03D9
:1054C00021F0730103EB021211430143E1602068F4
:1054D00020F080602060FEF7F5FF074605E000BF82
:1054E000FEF7F0FFC01B022837D820680001F7D470
:1054F000B8F1000F18D0B8F1010F1DD0287D4FF082
:105500007E41400801EB4060A96840EA0120216922
:10551000194A114008432061206840F080602060F3
:10552000FEF7D0FF07461AE0A868297B000240EA90
:10553000C1602169114AECE7288A1149400801EB52
:105540004050A96840EA012021690E4AE1E700BF06
:10555000FEF7B8FFC01B022801D9032606E0206829
:105560000001F5D52069A969084320613046BDE8EE
:10557000F081000000100240FF80FFF9FF80FF076C
:105580000000E0FFFF809FFFF8B51C4D0646002499
:10559000A86DC00002D5FFF753F80DE0A86D40F0EC
:1055A0008050A865A86D00F080500090FFF748F883
:1055B000A96D21F08051A965B0F5007F04D0802E3F
:1055C00007D94FF003040AE0802E08D9A02E01D895
:1055D00004E001D1022402E0702E00D10124084829
:1055E000016821F0070121430160006800F0070015
:1055F000A04201D00120F8BD0020F8BD00100240FB
:10560000002002407047FEF763BF10B5AEB04421E2
:1056100018A8FEF712FE142129A8FEF70EFE60213D
:105620006846FEF70AFE01210804CDE918100220A1
:1056300003242290CDE92341082125910721CDE9BA
:105640002610289018A8FFF77DFA0F20CDE929042D
:1056500000242B942C94012129A82D94FFF770F994
:1056600005200A94009008946846FEF7F1FF4FF475
:105670000070FEF7B1FF2EB010BD00000D480168AC
:1056800041F4700101600C48016841F001010160C2
:10569000002181600268094B1A4002608214C260D6
:1056A000026822F48022026081610249C0038039CD
:1056B0000860704788ED00E000100240FFFFF6EA46
:1056C00090F82410C90706D001684A68836A22F45A
:1056D00000321A434A6090F82410890706D5016801
:1056E0004A68C36A22F480321A434A6090F8241050
:1056F000490706D501684A68036B22F480221A43E1
:105700004A6090F82410090706D501684A68436B7F
:1057100022F400421A434A6090F82410C90606D5C4
:1057200001688A68836B22F480521A438A6090F879
:105730002410890606D501688A68C36B22F40052DA
:105740001A438A6090F82410490611D501684A6806
:10575000036C22F480121A434A60016CB1F5801F79
:1057600006D101684A68436C22F4C0021A434A60B9
:1057700090F82410090606D501684A68806C22F466
:10578000002202434A607047F8B500260446466787
:10579000FEF798FE0546206800686FF07E47000718
:1057A00008D52B4600224FF400112046009700F048
:1057B0005DF960B92068006840070AD52B460022D1
:1057C0004FF480012046009700F050F908B1032003
:1057D000F8BD202084F8710084F8720084F87060AD
:1057E0000020F8BD10B5806A0021A0F85A10A0F87A
:1057F0005210FFF718FC10BD01680A6822F490727D
:105800000A6001688A6822F001028A60202180F81B
:1058100072100021016670472DE9F04104460168CD
:1058200080682369E66918436369102500273343BC
:105830001843844A0B68844E334003430B6020684E
:105840004168E36821F44051194341602168A0692F
:10585000914201D0236A18438B6823F430630343D9
:105860008B607A4B21687A4899420DD1D0F8880034
:1058700010F0030006D0012839D0022835D00328C3
:1058800038D136E0012535E0724B99420BD1D0F882
:10589000880010F00C0026D0042828D0082824D036
:1058A0000C2827D125E06C4B99420BD1D0F8880009
:1058B00010F0300017D0102819D0202815D030282B
:1058C00018D116E0914215D1D0F8880010F440604C
:1058D00009D0B0F5806F0AD0B0F5006F05D0B0F5F3
:1058E000406F07D105E0002504E0022502E0042511
:1058F00000E00825594B00264FF4004091423DD16D
:1059000035B1022D07D0042D07D0082D10D107E0A6
:10591000FFF7A2F803E0184602E0FFF7C1F8A8B3CA
:10592000626802EB4201814202D8B0EB023F01D92A
:10593000012774E0DFF828815DB1022D0CD0042D21
:1059400013D0082DF4D150082905401846F1000164
:1059500005E0FFF781F80AE050084249F5E7002327
:10596000FEF730FCA0F5407155E0FFF799F862684A
:10597000010E0302500818187141F0E7E1694FF673
:10598000EF7881422ED1092DD2D200E047E0DFE846
:1059900005F006091F05220505052500C8E7FFF7E4
:1059A0005BF801E0FFF76AF84100606801EB500125
:1059B000B1FBF0F080B2A0F110014145B8D84FF62C
:1059C000F0710140C0F3420001432068C16026E04D
:1059D00025496068EAE7FFF763F8E5E74FF48031AF
:1059E0006068E3E7092DA3D2DFE805F006091E058C
:1059F0002205050525009BE7FFF72EF801E0FFF7DC
:105A00003DF80146606801EB500100BFB1FBF0F0CA
:105A100080B2A0F1100141458AD82168C86026668D
:105A200038466666BDE8F081606803EB5001EDE73B
:105A3000FFF736F8E5E7616800EB5100B0FBF1F0E5
:105A4000E6E7000000800040F369FFEF0038014006
:105A50000010024000440040004800400024F400D0
:105A6000FFFC0F00000024F40048E8012DE9F0419C
:105A7000984617460E460446069D1DE0681C1BD03E
:105A80002DB1FEF71FFDA0EB0800A84214D9206835
:105A9000016821F4D07101602068816821F0010162
:105AA0008160202084F8710084F87200002084F85E
:105AB00070000320BDE8F0812068C06936EA00006C
:105AC00004D00020B842D9D00020F3E70120F9E744
:105AD0000148FFF7A9BA00000C0000200148FFF7B9
:105AE000A3BA000084000020FEE70000014A02493A
:105AF00000F013B83D5B00080800002002E008C871
:105B0000121F08C1002AFAD170477047002001E037
:105B100001C1121F002AFBD170472DE9F041164642
:105B20000F460446002503E03946B047641C6D1C4F
:105B300020780028F8D12846BDE8F08113B5FF236E
:105B4000012269460248FFF7A9FB00981CBD00002E
:105B50000C0000200F490E480860002080F31088D8
:105B6000FEF7BEFCFFF751FDFFF7F2FBFFF726FC47
:105B7000FFF742FC084C4FF47A7508A0FFF7B6FF18
:105B8000F0212046FEF795FC2846FEF7BDFBF4E722
:105B90000040000808ED00E000040048617070203B
:105BA00064656D6F0D0A0000000000000000000039
:105BB0000102030406070809A0860100400D030046
:105BC000801A060000350C0040420F0080841E0041
:105BD00000093D0000127A000024F40000366E0136
:105BE0000048E801006CDC02000000000102030430
:105BF000105C0008000000200C000000FC5A0008A7
:105C00001C5C00080C000020F40400000C5B000881
:0C5C10000000000000093D000000000042
:040000050800418D21
:00000001FF
