:020000040800F2
:1000000088040020A1010008CF150008471200084D
:10001000CD150008E10200082D1C000800000000BA
:100020000000000000000000000000009D17000814
:10003000E302000800000000F11500089F17000807
:10004000BB010008BB010008BB010008BB010008A0
:10005000BB010008BB010008BB010008BB01000890
:10006000BB010008BB010008BB010008BB01000880
:10007000BB010008BB010008BB010008BB01000870
:10008000BB010008BB010008BB010008BB01000860
:10009000BB010008BB010008BB010008BB01000850
:1000A000BB010008BB010008BB010008BB01000840
:1000B000BB0100080000000000000000BB010008B8
:1000C000BB010008BB010008BB010008BB01000820
:1000D000BB010008BB010008BB010008BB01000810
:1000E000BB010008BB010008000000000000000088
:1000F0000000000000000000000000000000000000
:1001000000000000BB01000800000000BB01000867
:100110000000000000000000BB010008BB01000857
:10012000BB010008BB010008BB010008BB010008BF
:10013000BB010008000000000000000000000000FB
:10014000BB010008BB010008BB010008BB0100089F
:10015000BB010008BB010008BB010008BB0100088F
:10016000BB010008BB010008BB0100080000000043
:10017000BB010008BB010008BB0100080000000033
:10018000BB010008BB010008BB010008DFF80CD070
:1001900000F094F800480047E51D0008880400209E
:1001A0000648804706480047FEE7FEE7FEE7FEE711
:1001B000FEE7FEE7FEE7FEE7FEE7FEE70D180008B4
:1001C0008D0100082DE9F05F0546002092469B4610
:1001D00088460646814640241BE02846414647465D
:1001E000224600F05AF853465A46C01A914110D39D
:1001F00011461846224600F041F82D1A67EB010817
:100200004F4622460120002100F038F817EB000984
:100210004E41201EA4F10104DFDC484631462A4647
:10022000434600F000B830BCBDE8C09FD2B201E048
:1002300000F8012B491EFBD270470022F6E710B5EB
:1002400013460A4604461946FFF7F0FF204610BD44
:1002500030B50B46014600202022012409E021FA96
:1002600002F59D4205D303FA02F5491B04FA02F593
:100270002844151EA2F10102F1DC30BD202A04DB66
:10028000203A00FA02F1002070479140C2F12003A9
:1002900020FA03F3194390407047202A04DB203AE8
:1002A00021FA02F00021704721FA02F3D040C2F196
:1002B000200291400843194670470000064C074D44
:1002C00006E0E06840F0010394E807009847103426
:1002D000AC42F6D3FFF75EFF841E0008A41E0008A0
:1002E000FEE77047704770B5044600F0D3F8054646
:1002F000601C00D0641C00F0CDF8401BA042FAD373
:1003000070BD00002DE9F84FDFF864B100234FF015
:10031000010C4FF0030A4FF00F090BF1040EA0E09F
:100320000CFA03F6324072D04C68022C01D0122C29
:100330000ED1DC0800EB8408D8F820405D07EF0EF2
:1003400009FA07F5AC430D69BD402543C8F82050B4
:1003500007685D0091F804800AFA05F408F00308C4
:10036000A74308FA05F848EA0708C0F800804F6874
:10037000012F05D0022F03D0112F01D0122F11D140
:100380008768D1F80C80A74308FA05F848EA0708FF
:10039000C0F808804768B7430E79C6F300169E4040
:1003A0003E434660C668A6438C68AC403443C46094
:1003B0004C68E40054D52F4C256E45F001052566A8
:1003C000246E23F0030504F0010400942A4C2E1936
:1003D000B4689D072F0F09FA07F5AC43B0F1904FB1
:1003E00004D0264DA84203D1012512E0002510E0DB
:1003F000234DA84201D102250BE0224DA84201D194
:10040000032506E0204DA84202D1042501E027E0A3
:100410000725BD402543B560DBF800405D464E68CA
:100420009443F60300D514432C60DEF80040754673
:100430004E689443B60300D514432C600C4D083528
:100440002C684E689443F60200D514432C60084D86
:100450000C352C684E689443B60200D514432C60CA
:100460005B1C0A6832FA03F47FF45AAF00F00EB84E
:100470000004014000100240000001400004004858
:1004800000080048000C00480010004818BCBDE8F7
:10049000E08F000001480068704700000000002065
:1004A00002480168491C01607047000000000020FC
:1004B00010B50024032000F059F8002000F008F8DF
:1004C00008B1012401E000F01BF8204610BD000037
:1004D00070B5054609484FF47A7100240068B0FBF6
:1004E000F1F000F067FD08B1012404E00022294684
:1004F000501E00F01BF8204670BD000004000020D4
:10050000094808B5016E41F001010166016E01F074
:1005100001010091816D41F080518165806D00F095
:100520008050009008BD000000100240F0B40E4B57
:100530001B680C46C3F30223C3F10705042D00D941
:100540000425191D072901D2002300E0DB1E012626
:1005500006FA05F1491E214099409E40761E16403C
:100560003143F0BC01F034B80CED00E0064900F076
:10057000070208684FF6FF03184040EA0220034ACA
:1005800010430860704700000CED00E00000FA0521
:100590001649B0F5007F0868C0F3412009D0022851
:1005A00005D0086820F4C06040F480600860002036
:1005B00070470128FBD0086820F4C06040F4007048
:1005C00008600B483222006850430A4AB0FBF2F040
:1005D000401C00E0401E4A69520501D50028F9D1AF
:1005E00048694005E3D503207047000000700040D3
:1005F0000400002040420F000248006800F4C06080
:1006000070470000007000402DE9F84F04460027B5
:100610000088B54D3E46000515D5606C60B1B0F55B
:10062000000F04D0B0F5400F2BD001270AE0E86896
:1006300040F48030E86024E00021201D00F0DAFF63
:1006400007001ED03E46206880033AD5A86D4FF0C3
:100650000008C00009D4A86D40F08050A865A86DBE
:100660004FF0010800F080500090DFF880A2DAF827
:10067000001041F48071CAF80010FFF70BFF8146AB
:1006800010E0D5F88800616C20F440000843C5F8FC
:100690008800D8E7FFF7FEFEA0EB0900022801D989
:1006A000032705E0DAF80000C005F3D5002F7DD060
:1006B0004FEA0706B8F1000F03D0A86D20F0805074
:1006C000A8652078C00707D0D5F88800216A20F0F7
:1006D00003000843C5F888002078800707D5D5F8BF
:1006E0008800616A20F00C000843C5F88800207873
:1006F000400707D5D5F88800A16A20F030000843EC
:10070000C5F888002078800607D5D5F88800E16A0A
:1007100020F440600843C5F888002088800507D58C
:10072000D5F88800E16B20F440200843C5F8880024
:100730002088400507D5D5F88800216C20F44010AA
:100740000843C5F888002078400607D5D5F888000A
:10075000216B20F440500843C5F88800207800063B
:1007600007D5D5F88800616B20F440400843C5F8F0
:1007700088002088C00507D5D5F88800A16B20F433
:1007800040300843C5F8880020884FF00067800497
:100790004FF0806850D5D5F88800A16C20F04060FB
:1007A0000843C5F88800A06CB84200E005E03BD1E2
:1007B000E86840F48010E8603EE0D5F8900010F45E
:1007C000407014D0E16D814211D0D5F89000D5F879
:1007D000901020F4407041F48031C5F89010D5F8A5
:1007E000901021F48031C5F89010C5F89000C00732
:1007F00011D0FFF74FFE074641F2883907E000BFEE
:10080000FFF748FEC11B494501D9032652E7D5F839
:1008100090008007F4D5D5F89000E16D20F4407089
:100820000843C5F8900045E7404505D10121201D4A
:1008300000F0E0FE00B106462068000317D5D5F8A9
:100840008800E16C20F040600843C5F88800E06C47
:10085000B84204D1E86840F48010E86007E0404501
:1008600005D10121201D00F0C5FE00B1064620681B
:10087000400317D5D5F88800216D20F0406008436B
:10088000C5F88800206DB84204D1E86840F48010B3
:10089000E86007E0404505D10121201D00F0AAFED7
:1008A00000B106462088400411D5D5F88800616D56
:1008B00020F040500843C5F88800606DB0F1805FBB
:1008C00005D10221201D00F095FE00B106462088CA
:1008D000000406D555F8880FA16D20F0804008432C
:1008E0002860304600F004B800100240007000405C
:1008F00018BCBDE8E08F00002DE9F0470F46050069
:1009000058D03F4E306800F00700B84209D2306836
:1009100020F0070038433060306800F00700B8422C
:1009200048D12878374CC0072CD06868032811D0EC
:10093000022812D0216898B1490500293ADAA16845
:1009400021F003010143A160FFF7A4FD804641F2BD
:10095000883910E021688901EFE721688903ECE715
:100960008907EAE7FFF796FDA0EB0801494502D9A0
:100970000320BDE8F087A068696800F00C00B0EBC8
:10098000810FEFD12878800705D5A068A96820F0ED
:10099000F0000843A060306800F00700B8420BD9AF
:1009A000306820F0070038433060306800F00700FE
:1009B000B84201D00120DCE72878400705D5A068BF
:1009C000E96820F4E0600843A0602878000706D5B5
:1009D000A068296920F4605040EAC100A06000F0DE
:1009E0003BF8A168084AC1F30311515C01F01F01F3
:1009F000C84006490860BDE8F0470020FFF768BD21
:100A000000200240001002403C1E000804000020AC
:100A10000548064900688968054AC1F30221515C0E
:100A200001F01F01C8407047040000200010024080
:100A30007C1E00080548064900688968054AC1F31C
:100A4000C221515C01F01F01C84070470400002022
:100A5000001002407C1E000870B52549002318468E
:100A60008A68CC6812F00C0204F00306214C4FEAAD
:100A7000640509D00C2A05D0042A26D0082A00D102
:100A8000284670BD012E10D10B681B0704D4D1F885
:100A90009430C3F3032302E00B68C3F30313164E31
:100AA00056F823307AB10C2AEBD1C86800F0030263
:100AB000C868C0F30210401C022A08D0032A09D0DB
:100AC000B3FBF0F008E0184670BD204670BDB4FBE3
:100AD000F0F001E0B5FBF0F0CA68C968C2F3062285
:100AE0005043C1F34161491C4900B0FBF1F070BDB6
:100AF000001002400024F4004C1E00082DE9F843C9
:100B000005007CD0FD4CA06800F00C06E06800F009
:100B100003072878C00662D576B10C2E01D1012FCB
:100B20000AD0A8690028206878D040F00100206031
:100B3000FFF7B0FC804659E02068800702D5A8691D
:100B40000028DED0296A2068000703D5206800F05D
:100B5000F00004E0D4F89400F02202EA1010814280
:100B600016D9084600F0DCFD002848D1206840F086
:100B7000080020602068296A20F0F0000843206007
:100B80006068E96920F47F4040EA0120606015E078
:100B9000206840F0080020602068296A20F0F000FA
:100BA000084320606068E96920F47F4040EA012042
:100BB0006060286A00F0B4FD0028D6D1FFF74CFF32
:100BC000A168CF4AC1F30311515C01F01F01C84075
:100BD000CC4908600020FFF77BFC00287ED12EE086
:100BE000FFF758FCA0EB0800022878D8206880079F
:100BF000F6D5206840F008002060206801E0BBE0E6
:100C00000CE0296A20F0F000084320606068E96980
:100C100020F47F4040EA0120606010E020F00100F5
:100C20002060FFF737FC804606E000BFFFF732FC8C
:100C3000A0EB08000228D8D820688007F6D42878CE
:100C4000C00740D0082E18D00C2E01D1032F14D08D
:100C50006868B0F5803F17D0B0F5A02F206817D096
:100C600020F480302060206820F4802020606868B4
:100C7000E0B1FFF70FFC804614E02068800322D526
:100C80006868002878D01EE0206840F48030EDE7E6
:100C900040F480202060F7E7FFF7FCFBA0EB0800A2
:100CA0006428A2D820688003F6D50CE0FFF7F2FB99
:100CB000804605E0FFF7EEFBA0EB0800642894D81F
:100CC00020688003F6D4287880073BD5042E11D005
:100CD0000C2E01D1022F0DD0E86801E05EE1B8E0F2
:100CE000002820681ED040F480702060FFF7D2FBFF
:100CF00007460CE0206840050CD5E8680028C1D004
:100D000008E000BFFFF7C6FBC01B022893D820688D
:100D10004005F7D56068297C20F0F85040EA016072
:100D200060600FE020F480702060FFF7B3FB07469F
:100D300005E000BFFFF7AEFBC01B0228B1D820685A
:100D40004005F7D42878000729D568690028D4F829
:100D5000940012D040F00100C4F89400FFF79AFB11
:100D6000074604E0FFF796FBC01B022871D8D4F8B1
:100D700094008007F6D512E017E120F00100C4F8D6
:100D80009400FFF787FB074605E000BFFFF782FBF3
:100D9000C01B02285DD8D4F894008007F6D42878C8
:100DA000400766D5A06D0027C00008D4A06D40F0B4
:100DB0008050A065A06D012700F08050009052483F
:100DC0000168C90512D40168814641F4807101604F
:100DD000FFF760FB804605E0FFF75CFBA0EB080037
:100DE000022836D8D9F80000C005F5D5A868012832
:100DF00016D00528D4F8900017D020F00100C4F8D0
:100E00009000D4F8900020F0040000BFC4F89000D7
:100E1000A86841F28839C0B1FFF73CFB80460FE07B
:100E2000D4F8900040F00100F0E740F00400C4F86E
:100E30009000F5E7FFF72EFBA0EB0801494508D825
:100E4000D4F890008007F5D50EE0FFF723FB80462D
:100E500006E07CE0FFF71EFBA0EB0801494576D8D1
:100E6000D4F890008007F5D41FB1A06D20F0805019
:100E7000A0652878800628D5686A0028D4F89800EC
:100E800012D040F00100C4F89800FFF703FB0746BA
:100E900005E000BFFFF7FEFAC01B02287DD8D4F89A
:100EA00098008007F6D510E020F00100C4F8980003
:100EB000FFF7F0FA074604E0FFF7ECFAC01B022840
:100EC0006BD8D4F898008007F6D4A86AF0B30C2E3B
:100ED0006BD00228206820F08070206018D0206835
:100EE000000103D4E06820F00300E060E0680749F7
:100EF0000840E060FFF7CEFA054651E000100240DE
:100F00003C1E00080400002000700040FFFFEEFEC1
:100F1000FFF7C0FA064604E0FFF7BCFA801B022880
:100F20003BD820688001F7D4286B55F82C1F0001AE
:100F300010380843298A1E4A490802EB4151AA6821
:100F400041EA02210843297D490801E02BE024E021
:100F50004FF07E4202EB41610843297B40EAC160C9
:100F6000E060206840F080702060E06840F08070B1
:100F7000E060FFF78FFA054605E000BFFFF78AFA49
:100F8000401B022809D820688001F7D50BE000BF7C
:100F9000FFF780FA401B022802D90320BDE8F8833E
:100FA00020688001F4D40020F8E70120F6E7000073
:100FB0000000E0FF10B5401EB0F1807F01D301209A
:100FC00010BD4FF0E02460610F21601700F000FBBE
:100FD0000020A06107202061002010BD10B5040092
:100FE00003D094F8710010B107E0012010BD00207B
:100FF00084F87000204600F027F8242084F871005F
:101000002068016821F001010160204600F0B2FC77
:101010000128EBD0606A10B1204600F019FC20686E
:10102000416821F4904141602068816821F02A01E3
:1010300081602068016841F0010101602046BDE83F
:10104000104000F069BC000010B586B004461421C1
:101050006846FFF7F2F813492068884220D1124809
:10106000016E41F480410166016E01F480410591F9
:10107000C16C41F00101C164C06C694600F001001F
:1010800005904FF4C0600090022001900020029073
:1010900003200390072004904FF09040FFF732F9AF
:1010A00006B010BD00380140001002402DE9F84F95
:1010B000044690F872009A4616460D46202865D1DF
:1010C000EDB1E6B194F8700001285FD0012084F8FA
:1010D000700000276767222084F872005434FFF7FD
:1010E000D9F9A6808146E68054F84C0C4FF480581C
:1010F000FF21543C404508D1206918B10DE0012082
:1011000000F046B840F2FF100DE07F2218B1B0F1B8
:10111000805F05D009E0206950B9A4F85C1004E0B4
:10112000206928B13F20A4F85C00B4F85C601CE0A2
:10113000A4F85C20F9E74B46002220212046CDF898
:1011400000A000F041FD08B10320D9E7A0684045A8
:1011500001D12069A0B12068808C304005F8010BD6
:10116000B4F85A00401EA4F85A00B4F85A000028F7
:10117000E1D1202084F8720084F870700020BFE76D
:101180002068808C304025F8020BE9E70220B7E7A1
:1011900018BCBDE8E08F2DE9F843044690F87100D3
:1011A0001F4616460D4620284BD1C5B1BEB194F856
:1011B0007000012845D0012084F870004FF000082D
:1011C000C4F87480212084F87100FFF763F9A4F853
:1011D00050608146A4F852604FF4805615E001201B
:1011E000BDE8F8838021204600F0EEFCD8B9A06865
:1011F000B04201D12069C0B115F8010B2168088502
:10120000B4F85200401EA4F85200B4F852004B4605
:101210004FF0000200970028E4D14FF04001204633
:1012200000F0D2FC30B10320DAE735F8020BC0F34E
:101230000800E3E7202084F8710084F87080002023
:10124000CEE70220CCE7FEE7094808B5C16C41F0C3
:101250008001C164C16C01F080010091C16C41F05A
:101260000101C164C06C00F00100009008BD0000E5
:10127000001002400D4810B50B4901604FF4E131F8
:101280004160002181600C22C160C0E904128161CB
:10129000C16101624162FFF7A1FE002803D0BDE8F1
:1012A0001040FFF71FB810BD003801400C000020AF
:1012B00010B524A000F0BCFC32A000F0B9FC41A0A5
:1012C00000F0B6FC4FA000F0B3FC3EA000F0B0FC74
:1012D0005CA000F0ADFC1BA000F0AAFC69A000F02F
:1012E000A7FC6AA000F0A4FC78A000F0A1FC87A0F5
:1012F00000F09EFC00F092FD0028FBD0312803D0C6
:10130000322806D091A000E095A0BDE8104000F082
:101310008FBC9DA000F08CFC012080F31088A348B6
:101320000168A34A1140B1F1005F0AD14468006826
:1013300080F308889FA000F07BFCA446BDE8104025
:10134000604710BD0D0A3D3D3D3D3D3D3D3D3D3DB0
:101350003D3D3D3D3D3D3D3D3D3D3D3D3D3D3D3DBD
:101360003D3D3D3D3D3D3D3D3D3D3D3D3D3D3D3DAD
:101370003D3D3D3D3D3D3D3D3D3D3D3D3D3D3D3D9D
:101380003D0000000D0A3D202020202020202020AC
:10139000202020202028432920434F5059524947DC
:1013A00048542863292032303139204B45312020E0
:1013B000202020202020202020202020202020202D
:1013C0003D0000000D0A3D2020202020202020206C
:1013D000202020202020202020202020202020200D
:1013E00020202020202020202020202020202020FD
:1013F00020202020202020202020202020202020ED
:101400003D0000000D0A3D2020202020202020202B
:101410004B453120496E2D4170706C696361746970
:101420006F6E2050726F6772616D6D696E672041DB
:1014300070706C69636174696F6E202020202020B9
:101440003D0000000D0A3D202020202020202020EB
:1014500020202020202020202020204279204861A8
:10146000726477617265205465616D2020202020B0
:10147000202020202020202020202020202020206C
:101480003D0000000D0A0D0A000000000D0A3D3D60
:101490003D3D3D3D3D3D3D3D3D3D3D3D3D3D3D3D7C
:1014A0003D204D61696E204D656E75203D3D3D3D91
:1014B0003D3D3D3D3D3D3D3D3D3D3D3D3D3D3D3D5C
:1014C0003D3D3D3D3D3D3D3D3D0D0A002020446FED
:1014D000776E6C6F616420696D61676520746F2041
:1014E00074686520696E7465726E616C20466C610B
:1014F0007368202D2D2D2D2D2D2D2D2D2D2D2D2DA8
:101500002D2D2D2D20310D0A0A00000020204578B8
:10151000656375746520746865206C6F61646564CB
:10152000206170706C69636174696F6E202D2D2D60
:101530002D2D2D2D2D2D2D2D2D2D2D2D2D2D2D2DDB
:101540002D2D2D2D20320D0A0A0000004E6F742023
:10155000737570706F72746564210D0A000000006D
:10156000446F776E6C6F616420696D61676520748C
:101570006F2074686520696E7465726E616C2046B8
:101580006C6173680D0A00000D0A45786563757417
:101590006520746865206C6F61646564206170709B
:1015A0006C69636174696F6E0D0A00000040000889
:1015B0000000FE2F4A756D7020546F204170706CD2
:1015C00069636174696F6E210D0A0000FEE7704760
:1015D0000907090E002806DA00F00F0000F1E020EC
:1015E00080F8141D704700F1E02080F80014704767
:1015F000704700002DE9F041444C05468846E068FC
:101600000026810728680DD0E16801F003018142BE
:1016100016D1A8B1E0686968C0F30210401C884286
:101620000ED120E0012804D0022805D0032807D1DC
:1016300008E02168890701E021684905002907DBE6
:1016400001265FE02168890302D421684903F5E798
:10165000E1686A686FF00F0321F0730103EB021277
:1016600011430143E160206820F080602060FEF7B4
:1016700011FF074605E000BFFEF70CFFC01B022864
:1016800037D820680001F7D4B8F1000F18D0B8F1AE
:10169000010F1DD0287D4FF07E41400801EB4060D6
:1016A000A96840EA01202169194A114008432061D4
:1016B000206840F080602060FEF7ECFE07461AE0EC
:1016C000A868297B000240EAC1602169114AECE761
:1016D000288A1149400801EB4050A96840EA0120DE
:1016E00021690E4AE1E700BFFEF7D4FEC01B0228C5
:1016F00001D9032606E020680001F5D52069A96913
:10170000084320613046BDE8F0810000001002402F
:10171000FF80FFF9FF80FF070000E0FFFF809FFFD1
:10172000F8B51C4D06460024A86DC00002D5FEF792
:1017300063FF0DE0A86D40F08050A865A86D00F033
:1017400080500090FEF758FFA96D21F08051A965E7
:10175000B0F5007F04D0802E07D94FF003040AE0D3
:10176000802E08D9A02E01D804E001D1022402E085
:10177000702E00D101240848016821F0070121439F
:101780000160006800F00700A04201D00120F8BD10
:101790000020F8BD00100240002002407047FEF714
:1017A0007FBE30B5AFB044216846FEF746FD142138
:1017B00029A8FEF742FD602111A8FEF73EFD012594
:1017C0002804CDE90050022003240821CDE90C5162
:1017D000CDE90A040721CDE90E1010906846FFF705
:1017E0008DF90F20CDE9290400242B942C9401219C
:1017F00029A82D94FFF780F811A811951994FEF7E8
:1018000003FF6802FEF7C4FE2FB030BD0D4801682B
:1018100041F4700101600C48016841F00101016070
:10182000002181600268094B1A4002608214C26084
:10183000026822F48022026081610249C00380397B
:101840000860704788ED00E000100240FFFFF6EAF4
:1018500090F82410C90706D001684A68836A22F408
:1018600000321A434A6090F82410890706D50168AF
:101870004A68C36A22F480321A434A6090F82410FE
:10188000490706D501684A68036B22F480221A438F
:101890004A6090F82410090706D501684A68436B2E
:1018A00022F400421A434A6090F82410C90606D573
:1018B00001688A68836B22F480521A438A6090F828
:1018C0002410890606D501688A68C36B22F4005289
:1018D0001A438A6090F82410490611D501684A68B5
:1018E000036C22F480121A434A60016CB1F5801F28
:1018F00006D101684A68436C22F4C0021A434A6068
:1019000090F82410090606D501684A68806C22F414
:10191000002202434A607047F8B500260446466735
:10192000FEF7B8FD0546206800686FF07E470007A7
:1019300008D52B4600224FF400112046009700F0F6
:1019400043F960B92068006840070AD52B46002299
:101950004FF480012046009700F036F908B10320CB
:10196000F8BD202084F8710084F8720084F870605B
:101970000020F8BD2DE9F041044601688068236924
:10198000E669184363691025002733431843844AE6
:101990000B68844E334003430B6020684168E36862
:1019A00021F44051194341602168A069914201D05E
:1019B000236A18438B6823F4306303438B607A4BAC
:1019C00021687A4899420DD1D0F8880010F00300C0
:1019D00006D0012839D0022835D0032838D136E086
:1019E000012535E0724B99420BD1D0F8880010F0F8
:1019F0000C0026D0042828D0082824D00C2827D171
:101A000025E06C4B99420BD1D0F8880010F03000E3
:101A100017D0102819D0202815D0302818D116E05A
:101A2000914215D1D0F8880010F4406009D0B0F58B
:101A3000806F0AD0B0F5006F05D0B0F5406F07D1C8
:101A400005E0002504E0022502E0042500E0082569
:101A5000594B00264FF4004091423DD135B1022D43
:101A600007D0042D07D0082D10D107E0FEF7D0FFD6
:101A700003E0184602E0FEF7EFFFA8B3626802EB4E
:101A80004201814202D8B0EB023F01D9012774E044
:101A9000DFF828815DB1022D0CD0042D13D0082D64
:101AA000F4D150082905401846F1000105E0FEF781
:101AB000AFFF0AE050084249F5E70023FEF782FB3A
:101AC000A0F5407155E0FEF7C7FF6268010E030202
:101AD000500818187141F0E7E1694FF6EF7881423C
:101AE0002ED1092DD2D200E047E0DFE805F006094B
:101AF0001F05220505052500C8E7FEF789FF01E05F
:101B0000FEF798FF4100606801EB5001B1FBF0F077
:101B100080B2A0F110014145B8D84FF6F0710140F4
:101B2000C0F3420001432068C16026E02549606897
:101B3000EAE7FEF791FFE5E74FF480316068E3E7FD
:101B4000092DA3D2DFE805F006091E0522050505CB
:101B500025009BE7FEF75CFF01E0FEF76BFF014607
:101B6000606801EB500100BFB1FBF0F080B2A0F162
:101B7000100141458AD82168C860266638466666E5
:101B8000BDE8F081606803EB5001EDE7FEF764FF0C
:101B9000E5E7616800EB5100B0FBF1F0E6E700001B
:101BA00000800040F369FFEF003801400010024060
:101BB00000440040004800400024F400FFFC0F00F7
:101BC000000024F40048E8012DE9F041984617464A
:101BD0000E460446069D1DE0681C1BD02DB1FEF785
:101BE00059FCA0EB0800A84214D92068016821F430
:101BF000D07101602068816821F00101816020209E
:101C000084F8710084F87200002084F870000320CA
:101C1000BDE8F0812068C06936EA000004D00020E9
:101C2000B842D9D00020F3E70120F9E7FEE7000031
:101C30000FB4054B10B503A9044A029800F018F838
:101C400010BC5DF814FB0000CD1D0008080000204A
:101C500002E008C8121F08C1002AFAD17047704775
:101C6000002001E001C1121F002AFBD170470000D3
:101C70002DE9FF4F89B09B460446002506E0252844
:101C80000BD05A460B999047641C6D1C2078002895
:101C9000F5D10DB0284600F095B80027B8460122CE
:101CA000474900E0074314F8013F203B02FA03F0E4
:101CB0000842F7D120782E2819D114F8010F47F0E7
:101CC00004072A280ED06FF02F022078A0F13001EF
:101CD00009290CD808EB880102EB410100EB01084F
:101CE000641CF2E70A98641C50F8048B0A90207870
:101CF0000028CED0642808D0692806D075281ED0C8
:101D00005A460B9990476D1C58E00A994FF00A0902
:101D100001C90A91002802DA40422D2102E039056A
:101D200004D52B218DF82010012103E0F90704D000
:101D30002021F7E78A4608AE0DE00021FAE70A996C
:101D40004FF00A0901C90A91F7E74946FEF780FA00
:101D5000303106F8011D0028F7D1ADEB060000F187
:101D60002009780701D44FF00108C84502DDA8EB2F
:101D7000090000E000208046002706E008A85A4637
:101D8000C05D0B9990476D1C7F1C5745F6DB04E046
:101D900030205A460B9990476D1CB8F10001A8F10C
:101DA0000108F5DC05E016F8010B5A460B9990473F
:101DB0006D1CB9F10001A9F10109F4DC641C65E7AF
:101DC0000928010030BCBDE8C08F000013B5FF2317
:101DD000012269460248FFF7DEF900981CBD0000A9
:101DE0000C000020FEF764FBFFF7DBFCFFF72CFA8A
:101DF000FFF740FA04A0FFF71BFF6420FEF773FA19
:101E0000FFF756FAFCE70000537461727420426FCA
:101E10006F746C6F616465720A00000008B5002081
:101E20008DF8000042F21073012269460248FFF764
:101E30003DF99DF8000008BD0C00002000000000E6
:101E4000000000000102030406070809A086010043
:101E5000400D0300801A060000350C0040420F00C0
:101E600080841E0000093D0000127A000024F40066
:101E700000366E010048E801006CDC020000000042
:101E800001020304A41E0008000000200C00000052
:101E9000501C0008B01E00080C0000207C0400004C
:101EA000601C00080000000000093D000000000068
:040000050800018D61
:00000001FF
